:020000040800F2
:10400000982B00208D070108790101087B01010828
:104010007D0101087F010108810101080000000005
:104020000000000000000000000000008301010803
:1040300085010108000000008701010889010108CD
:10404000190801081D0801082108010825080108B0
:10405000290801082D080108310801083508010860
:10406000390801083D080108410801084508010810
:10407000490801084D0801085108010855080108C0
:10408000590801085D080108610801086508010870
:104090001B020108690801086D0801087108010880
:1040A00075080108A5AB0008790801087D0801081A
:1040B0008108010885080108890801088D080108A0
:1040C0009108010895080108990801089D08010850
:1040D000A1080108CD010108A5080108A9080108E7
:1040E000AD080108B1080108B5080108B9080108C0
:1040F000BD080108C1080108C5080108C908010870
:10410000CD080108D1080108D5080108D90801081F
:10411000DD080108E1080108E5080108E9080108CF
:10412000ED080108F1080108F5080108F90801087F
:10413000B1F5807F02D34FF0FF307047017001204E
:1041400070470078401E8041C043C00F704702682E
:10415000531C036011707047100701000000020734
:10416000000004082006401B002002050000141275
:104170008A0C43009F0C228B18512412440C12808D
:104180002B520010600634000020A086010010129F
:104190004410610C22503810020900000A0C83F010
:1041A0001A0C92FC0C420850714083840084837A7C
:1041B000074C2254901206AC110C83760724837BA3
:1041C000079C925CA892600C92640C12680C12011D
:1041D000481281406144927C6892F4C022F80C51EC
:1041E00024437D0738928238927E38832C010C83D9
:1041F000300138127F248381013492803492642804
:10420000928DE0837C1B18928E18927E18128F0C70
:1042100092825892815892BC5892904092804092DB
:10422000911892821812920C928358928258831499
:104230000228929340928440929418928618129584
:104240000C962050928358126C58100508000120DB
:10425000100002247203249284248388020C928C1E
:104260000C12900C70014000043492853422C42852
:1042700042040C92388C9288A483781B30223C0C28
:104280001A1B94110C22200C1300FF01B200011222
:1042900089182004100501081C0320100900005F84
:1042A000DA00089C070108A804F00B403EA80008AB
:1042B000CEB50008C50301080001F001FFFFFF00B3
:1042C00001F14201560F6510032DE300082F04127F
:1042D0004704740149E300D02D94042D8C0412741A
:1042E000082D88042596F4046D59E900080F0F9EE7
:1042F00029AA127D88127A9C3A8CBCF16D0125188E
:104300002D1C062D1006100377E400087904125BBB
:10431000A0877BE94C1EDD280383618810E201B58C
:104320004E017C062D74062D9006F3118400D843AF
:104330000FE550200201020304046C060607080979
:10434000020406083E0321641ECFA403F1070452B1
:10435000FF01E3EAAA1420040000EEB3000840F7CE
:1043600019F40660434341904331413C2101001060
:10437000FFFFE803FFFF0104030103020606060135
:02438000030137
:1050000043616E466573746976616C203234303862
:10501000313330322047323331323030000000003B
:105020000000000000000000000000000000000080
:0250300000007E
:105034002DE9FE4304000D0060694688300080B20B
:1050440000280BD05827A069408807FB05F12144AC
:1050540091F8281011FA86F1884200DA53E060686A
:1050640007FB05F1214491F8281011FA86F150F854
:105074003100C06AD0F800805FF0FF3007FB05F113
:105084002144A1F87A00852007FB05F1214481F829
:105094002A00DFF84897CDF8049007FB05F0204478
:1050A40090F83200009007FB05F02044038E07FBC4
:1050B40005F0204490F8282007FB05F0204490F8E0
:1050C4002910200000F08FFC07FB05F02044C0F8F5
:1050D4002C9007FB05F02044C06F002807D0414600
:1050E400C9B2200007FB05F22244D26F904707FBA8
:1050F40005F704EB0700C06A484504D12900C9B28A
:10510400200000F067FABDE8F78338B504000025F5
:105114002800C0B2052806DA2900C9B2200000F030
:1051240059FA6D1CF4E731BD38B584B004000D00A4
:1051340058212800C0B248432044406B002809D1BC
:105144002800C0B2484320442A00D2B24A43224431
:10515400926B42632800C0B248432044406B0390E2
:10516400039821281CD3012002900120019003A858
:1051740000902800C0B248432044C36D2800C0B248
:105184004843204490F832202800C0B201FB00F1CB
:1051940004EB0100018E200003F048FA01001CE03A
:1051A400012002900120019003A800902800C0B2C1
:1051B4004843204410F13C032800C0B24843204433
:1051C40090F832202800C0B201FB00F104EB01008A
:1051D400018E200003F02AFA0100002901D0080002
:1051E40000E0002005B030BD2DE9F04186B0050097
:1051F4000E002020059058270120039001200290E2
:1052040004A8019005A800903000C0B27843284457
:1052140010F13C033000C0B27843284490F83220A7
:105224003000C0B278432844018E280003F04BF9C3
:105234000400DFF8AC0584423BD1059840F20141FB
:10524400884236D23000C0B2784305EB0008059896
:1052540003F09EFDC8F85C003000C0B278432844D7
:10526400C06D002825D03000C0B278432844059989
:105274000166012003900120029004A801903000EF
:10528400C0B278432844603000903000C0B2784304
:105294002844C36D3000C0B27843284490F83220CB
:1052A4003000C0B278432844018E280003F00BF983
:1052B4000400002C01D020000EE03000C0B278437E
:1052C4002844059941633000C0B207FB00F705EBA1
:1052D400070000218163002006B0BDE8F081F0B42E
:1052E400040058250800C0B268432044406B0E00F7
:1052F400F6B26E432644B66B9619B04201D2FF2033
:105304004CE00800C0B268432044866B0800C0B279
:1053140068432044406B212814D200273800C0B2CF
:1053240090422DD20800C0B26843204456FA87FC4C
:10533400604490F83C00BC465FFA8CFC03F80C0017
:105344007F1CEBE70800C0B268432044C06D00280E
:1053540001D1FF2022E000273800C0B290420FD2D2
:105364000800C0B268432044C06D56FA87FC10F8A8
:105374000C00BC465FFA8CFC03F80C007F1CEBE7C6
:105384000800C0B2684320448C465FFA8CFC05FBDD
:105394000CF52544AD6B551985630020F0BC7047AE
:1053A4002DE9FE4F04000D0016001F005FF05808A1
:1053B4002800C0B208FB00F02044D0F83890280040
:1053C400C0B208FB00F0204410F13C0A2800C0B22F
:1053D40008FB00F02044806B301821287AD3280081
:1053E400C0B208FB00F02044C06D002833D128006F
:1053F400C0B208FB00F004EB000B4FF4806003F034
:10540400C7FCCBF85C002800C0B208FB00F02044C5
:105414004FF4806101662800C0B208FB00F020440C
:10542400C06D002801D1FF2071E0CDF80490280060
:10543400C0B208FB00F020443C3000902800C0B209
:1054440008FB00F02044D0F85CB0019A009958465B
:1054540005F078F837E02800C0B208FB00F02044DB
:10546400006E2900C9B208FB01F12144896B71184F
:10547400884228D22800C0B208FB00F02044016E04
:1054840011F580612800C0B208FB00F02044C06D13
:1054940005F0ADF80100002901D1FF2037E0280014
:1054A400C0B208FB00F02044C1652800C0B208FB6C
:1054B40000F020442A00D2B208FB02F22244126E09
:1054C40012F5806202662800C0B208FB00F0204496
:1054D400C06D824600210800C0B2B04208D2080064
:1054E400C0B2385C59FA81F20AF80200491CF2E7AA
:1054F4002800C0B208FB00F020442A00D2B208FB06
:1055040002F804EB0802926BB21882630020BDE833
:10551400FE8F2DE9FF4704000D0016001F00DDF883
:10552400348002AB3200D2B22900C9B2200000F0AC
:105534007DF981464846C0B2002808D13000C0B287
:10554400012804D19DF80810200000F043F84846D3
:10555400C0B2002825D13000C0B2022821D15FF0AA
:10556400580A9DF808000AFB00F02044B0F97A00BC
:1055740005F09BF89DF808100AFB01F12144A1F8FD
:105584007A009DF808000AFB00F02044852180F889
:105594002A109DF808000AFB00FA04EB0A00C0F880
:1055A4002C80CDF804809DF8300000903B009BB225
:1055B4002A00D2B23100C9B2200000F014FA01006E
:1055C4000800C0B2002801D0FF2000E0002004B091
:1055D400BDE8F0873EB504000D00002001900020D6
:1055E4000090002300222900C9B2200000F01FF817
:1055F400002120290BD22A00D2B25820424304EBC6
:1056040002000844002280F83C20491CF1E758209D
:105614002A00D2B242432244002382F829302A00CD
:10562400D2B200FB02F020440022C26237BD2DE951
:10563400FC4706000F00904699460A9C0B9D2800E3
:10564400C0B202280BD02800C0B2032807D028001B
:10565400C0B2042803D02800C0B2052811D100200C
:105664000090604B604A3900C9B2300004F0C2FFB8
:105674003A00D2B258214A4306EB0201A1F87A005B
:1056840010E058203900C9B2414306EB010A390041
:10569400C9B200FB01F03044B0F97A0005F005F816
:1056A400AAF87A005FF0580A3800C0B20AFB00F08A
:1056B400304480F828803800C0B20AFB00F030443F
:1056C400A0F830903800C0B20AFB00F0304480F8F3
:1056D40032403800C0B20AFB00F0304480F82A504F
:1056E4003800C0B20AFB00F03044002180F82B10CF
:1056F4003800C0B20AFB00F0304400214163380096
:10570400C0B20AFB00F03044002181633800C0B20B
:105714000AFB00F03044002180F864103800C0B265
:105724000AFB00F03044002180F865103800C0B254
:105734000AFB00F03044002180F866103800C0B243
:105744000AFB00F03044002181663800C0B20AFB35
:1057540000F03044002180F86C103800C0B20AFB1D
:1057640000F03044002180F86D103800C0B20AFB0C
:1057740000F03044002180F86E103800C0B20AFBFB
:1057840000F03044002180F86F103800C0B20AFBEA
:1057940000F03044002180F878103800C0B20AFBD1
:1057A40000F030440021C1673800C0B20AFB00F0A9
:1057B4003044C06D04F019FF3800C0B20AFB00F099
:1057C40030440021C1653800C0B20AFB00FA06EB80
:1057D4000A00002101660020BDE8F68700000405E8
:1057E4000500040500B4C4043550000830B40300B7
:1057F40000242000C0B2052815DA58252000C0B2C4
:105804006843184490F82A0000280AD11470200034
:10581400C0B205FB00F503EB050080F82910002059
:1058240002E0641CE5E7FF2030BC70472DE9F84F27
:1058340004000D0016001F005FF000084046C0B2CF
:10584400052838DA58214046C0B24843204490F82D
:105854002A0000282CD04046C0B24843204490F887
:105864002A00852824D04046C0B24843204490F8FA
:1058740028002A00D2B290421AD14046C0B248430E
:10588400204490F829003200D2B2904210D15FF047
:1058940058095FF0000A4046C0B201FB00F104EB76
:1058A400010010F1280B52464946584604F092FF75
:1058B40018F10108C2E7FF20BDE8F28F30B40300FD
:1058C40058240800C0B260431844406B002802D139
:1058D400002010600DE00800C0B260431844456B1E
:1058E4000800C0B204FB00F403EB0400806B2D1A23
:1058F4001560002030BC704710B403000C00E4B203
:105904005820444303EB04004263002010BC70475A
:105914002DE9FE4304000D0016001F0094F8E00179
:10592400052805D094F8E0017F2801D0FF2058E035
:105934002800C0B201281CD16069B0F8008040463C
:1059440080B2002807D0A06900883100C9B211FADA
:1059540088F1884201DAFF2043E060683100C9B26F
:1059640011FA88F150F83100006A0068ADF80000BF
:105974001BE06069B0F80280404680B2002807D07E
:10598400A06940883100C9B211FA88F1884201DA6D
:10599400FF2026E060683100C9B211FA88F150F89E
:1059A400310040690068ADF8000000208DF8020065
:1059B40008208DF803005FF000094846C0B20828AB
:1059C4000ADA4846C0B2385C69464A46D2B2114443
:1059D400087119F10109F0E76946D4F8480304F0A5
:1059E400D1FFBDE8FE832DE9FE4305000E0017003C
:1059F40098460A9CDDF82C9080208DF800004046E3
:105A04008DF80100404680B2000A8DF802008DF83E
:105A1400034048468DF804004846000A8DF8050006
:105A24004846000C8DF806004846000E8DF8070025
:105A34006B463A00D2B23100C9B22800FFF768FFC2
:105A4400C0B2BDE8FE8300002DE9F84F8CB0834658
:105A54000F0000208DF80B00032100200A905FF056
:105A64000308DBF814000088ADF81A00DBF818000E
:105A74000088ADF81E0000208DF81800BDF81A004B
:105A840000282FD0BDF81E00BDF81A10884229D373
:105A9400DBF80400BDF81A1000EBC10000790228FD
:105AA40002DAFF2002F0CBBADBF80400BDF81A10CA
:105AB40050F8310040690A900A9800683988884291
:105AC40005D1012080469DF8180004000AE09DF8E5
:105AD4001800401C8DF81800BDF81A00401CADF8E1
:105AE4001A00CFE74046C0B203284AD1DBF81400BD
:105AF4004088ADF81A00DBF818004088ADF81E00A5
:105B040000208DF81800BDF81A00002839D0BDF81F
:105B14001E00BDF81A10884233D3DBF80400BDF828
:105B24001A1000EBC1000079042802DAFF2002F009
:105B340086BADBF80400BDF81A1050F83100006A88
:105B44000A900A980068398888420FD1022080465A
:105B54009DF818000400DBF80400BDF81A1050F892
:105B64003100C06A00788DF80B000AE09DF8180037
:105B7400401C8DF81800BDF81A00401CADF81A003E
:105B8400C5E74046C0B2032802D1FF2002F057BA4D
:105B9400F87808280FD05FF0006001900020009092
:105BA40000234246D2B22100C9B25846FFF7B1FCE5
:105BB400FF2002F044BA02AB4246D2B22100C9B27D
:105BC4005846FFF733FE8146FF208DF81C004846F7
:105BD400C0B2002825D14046C0B2012809D19DF8A1
:105BE4000810582041430BEB010090F82A000428C8
:105BF4000DD04046C0B2022813D19DF80810582099
:105C040041430BEB010090F82A00052809D13879AB
:105C1400802803D104208DF81C0002E006208DF8B2
:105C24001C009DF81C00FF2804D13879C0B240093B
:105C34008DF81C009DF81C00002810D0022800F0EC
:105C44007584C0F02C82042801F0A080C0F058862E
:105C5400062801F03D85C1F0EF8002F0EDB9404621
:105C6400C0B2012840F004814846C0B200280ED1D9
:105C74009DF80810582041430BEB010090F82A00CE
:105C8400022802D05FF0010901E05FF000094846F4
:105C9400C0B200280FD0DFF87C0D019000200090E6
:105CA40000234246D2B22100C9B25846FFF731FC64
:105CB400FF2002F0C4B99DF80810582041430BEBB3
:105CC4000100B0F97A0010F1010F24D09DF80810FA
:105CD400582041430BEB0100B0F97A0004F0E5FCD5
:105CE4009DF8082058214A430BEB0201A1F87A00E1
:105CF40000200090DFF8203DDFF8202D9DF80810EB
:105D0400584604F077FC9DF8082058214A430BEBD1
:105D14000201A1F87A009DF80810582041430BEBCA
:105D24000100008E05009DF80810582041430BEB3C
:105D3400010090F832008DF809009DF808105820F1
:105D440041430BEB010090F82B003979C1F30011AA
:105D5400884211D0DFF8C80C01909DF8090000902A
:105D64002B009BB24246D2B22100C9B25846FFF77B
:105D7400D0FBFF2002F063B93879C0F34200D0F1C0
:105D8400070003907B1D039A9DF808105846FFF7FF
:105D940007FB81464846C0B2002811D05FF000607E
:105DA40001909DF8090000902B009BB24246D2B2AC
:105DB4002100C9B25846FFF7ACFBFF2002F03FB9FF
:105DC4009DF80810582041430BEB010090F82B007C
:105DD400000150F020008DF8100001208246BAF135
:105DE400080F06D2002004A901F80A001AF1010ADA
:105DF400F5E704AB2200D2B24146C9B25846FFF7D8
:105E040087FD58219DF808004843584490F82B001A
:105E1400002801D1012000E000209DF8082001FBAA
:105E240002F1594481F82B003879C00740F13581DB
:105E34009DF808105846FFF777F90890089800284D
:105E440010D0089801909DF8090000902B009BB297
:105E54004246D2B22100C9B25846FFF75AFBFF208E
:105E640002F0EDB89DF808105846FFF7B3FB14E1B3
:105E74004846C0B200280ED19DF80810582041436E
:105E84000BEB010090F82A00032802D05FF001090F
:105E940001E05FF000094846C0B200280FD0DFF8E7
:105EA400740B01900020009000234246D2B22100DE
:105EB400C9B25846FFF72DFBFF2002F0C0B89DF889
:105EC4000810582041430BEB0100B0F97A0010F19F
:105ED400010F24D09DF80810582041430BEB01001A
:105EE400B0F97A0004F0E1FB9DF8082058214A43F8
:105EF4000BEB0201A1F87A0000200090DFF8183BB8
:105F0400DFF8182B9DF80810584604F073FB9DF831
:105F1400082058214A430BEB0201A1F87A009DF8AE
:105F24000810582041430BEB0100008E05009DF83A
:105F34000810582041430BEB010090F832008DF813
:105F440009009DF80810582041430BEB010090F81C
:105F54002B003979C1F30011884211D0DFF8C00A4F
:105F640001909DF8090000902B009BB24246D2B2EA
:105F74002100C9B25846FFF7CCFAFF2002F05FB8FF
:105F84003879C0F34200D0F1070003907B1D039AD7
:105F94009DF808105846FFF703FA81464846C0B2F8
:105FA400002811D05FF0006001909DF80900009076
:105FB4002B009BB24246D2B22100C9B25846FFF729
:105FC400A8FAFF2002F03BB89DF80810582041437E
:105FD4000BEB010090F82B00002801D1012100E017
:105FE40000219DF80820582042430BEB020080F862
:105FF4002B103879C0072FD59DF80810582041433D
:106004000BEB0100B0F97A0004F04FFB9DF8082077
:1060140058214A430BEB0201A1F87A0001219DF8B3
:106024000820582042430BEB020080F82A109DF808
:106034000810582041430BEB0100C06F00282CD0FE
:106044009DF80B1058469DF80830582253430BEB2B
:106054000302D26F904720E09DF808105820414376
:106064000BEB010090F82B00000150F060008DF85C
:10607400100001208246BAF1080F06D2002004A9BC
:1060840001F80A001AF1010AF5E704AB2200D2B2C2
:106094004146C9B25846FFF73BFC01F0CFBF40462A
:1060A400C0B2012840F0E680B879797951EA00213C
:1060B4000D00F8798DF809004846C0B2002811D1C6
:1060C400DFF8500901909DF8090000902B009BB265
:1060D4004246D2B22100C9B25846FFF71AFAFF204D
:1060E40001F0ADBF02AA4146C9B25846FFF77EFB94
:1060F40081464846C0B2002811D0DFF81809019043
:106104009DF8090000902B009BB24246D2B22100B8
:10611400C9B25846FFF7FDF9FF2001F090BF0220F5
:1061240001909DF8090000902B009BB22200D2B28E
:106134009DF808105846FFF77AFA3879C0F3400002
:1061440000284CD03879C0F38100D0F104000390CA
:1061540003999DF80820582042430BEB0200416349
:1061640017F10803039A9DF808105846FFF718F929
:1061740081464846C0B2002811D05FF0006001900B
:106184009DF8090000902B009BB24246D2B2210038
:10619400C9B25846FFF7BDF9FF2001F050BF9DF882
:1061A40008105846FEF7C0FF08900898002810D041
:1061B400089801909DF8090000902B009BB242467C
:1061C400D2B22100C9B25846FFF7A3F9FF2001F06B
:1061D40036BF9DF808105846FFF7FCF92AE03879D5
:1061E400C00727D5387A797A09020818B97A10EBEA
:1061F4000140F97A10EB01600390039A9DF80810AE
:106204005846FFF779FB81464846C0B2002811D0B2
:106214005FF0006001909DF8090000902B009BB294
:106224004246D2B22100C9B25846FFF772F9FF20A4
:1062340001F005BF60208DF8100004A84570290006
:1062440089B2090A81709DF80910C17004218A4637
:10625400BAF1080F05D2002100F80A101AF1010A58
:10626400F6E704AB2200D2B24146C9B25846FFF762
:106274004FFB59E14846C0B200280ED19DF80810E2
:10628400582041430BEB010090F82A00022802D069
:106294005FF0010901E05FF000094846C0B2002840
:1062A4000FD0DFF8700701900020009000234246D1
:1062B400D2B22100C9B25846FFF72BF9FF2001F0F2
:1062C400BEBE9DF80810582041430BEB0100B0F905
:1062D4007A0010F1010F24D09DF808105820414392
:1062E4000BEB0100B0F97A0004F0DFF99DF8082007
:1062F40058214A430BEB0201A1F87A0000200090D8
:10630400DFF81437DFF814279DF80810584604F016
:1063140071F99DF8082058214A430BEB0201A1F8BA
:106324007A009DF80810582041430BEB0100008EC1
:1063340005009DF80810582041430BEB010090F82C
:1063440032008DF809009DF80810582041430BEBEA
:10635400010090F82B003979C1F30011884211D063
:10636400DFF8BC0601909DF8090000902B009BB259
:106374004246D2B22100C9B25846FFF7CAF8FF20FC
:1063840001F05DBE03AA9DF808105846FFF796FA7F
:106394000398002831D19DF80810582041430BEB95
:1063A4000100B0F97A0004F080F99DF80820582122
:1063B4004A430BEB0201A1F87A0001219DF8082061
:1063C400582042430BEB020080F82A109DF8081075
:1063D400582041430BEB0100C06F00280AD09DF800
:1063E4000B1058469DF80830582253430BEB030218
:1063F400D26F9047002001F022BE039808283BD3B7
:1064040058219DF808004843584490F82B00002870
:1064140001D1012000E000209DF808204A435A449D
:1064240082F82B009DF8080001FB00F10BEB010042
:1064340090F82B0000018DF810000DF111030722D4
:106444009DF808105846FEF74AFF81464846C0B2F8
:10645400002861D05FF0006001909DF80900009071
:106464002B009BB24246D2B22100C9B25846FFF774
:1064740050F8FF2001F0E3BD58219DF8080048437F
:10648400584490F82B00002801D1012000E000209E
:106494009DF808204A435A4482F82B009DF80800CE
:1064A40001FB00F10BEB010090F82B0000010399B4
:1064B400D1F1070150EA410050F001008DF81000BD
:1064C4000DF11103039A9DF808105846FEF707FFD3
:1064D40081464846C0B2002811D05FF000600190A8
:1064E4009DF8090000902B009BB24246D2B22100D5
:1064F400C9B25846FFF70DF8FF2001F0A0BD03987C
:10650400401C8246BAF1080F06D2002004A901F803
:106514000A001AF1010AF5E704AB2200D2B241469F
:10652400C9B25846FFF7F4F901F088BD4046C0B23D
:10653400012840F0D980B879797951EA00210D0019
:10654400F8798DF809004846C0B2002811D1DFF867
:10655400C40401909DF8090000902B009BB24246B0
:10656400D2B22100C9B25846FEF7D3FFFF2001F092
:1065740066BD02AA4146C9B25846FFF737F98146BB
:106584004846C0B2002811D0DFF8880401909DF875
:10659400090000902B009BB24246D2B22100C9B23E
:1065A4005846FEF7B6FFFF2001F049BD03200190D5
:1065B4009DF8090000902B009BB22200D2B29DF8F6
:1065C40008105846FFF733F89DF808105846FEF7B0
:1065D4000BFE08900898002810D0089801909DF8A8
:1065E400090000902B009BB24246D2B22100C9B2EE
:1065F4005846FEF78EFFFF2001F021BD03AA9DF847
:1066040008105846FFF75AF9039805281FD341206C
:106614008DF8100004A84570290089B2090A817018
:106624009DF80910C170039901710399090A417118
:106634000399090C81710399090EC17104AB2200FD
:10664400D2B24146C9B25846FFF762F956E10398FF
:10665400D0F10400800050F043008DF810002800B1
:106664008DF81100280080B2000A8DF812009DF800
:1066740009008DF8130005AB039A9DF808105846DD
:10668400FEF72DFE81464846C0B2002811D05FF0C7
:10669400006001909DF8090000902B009BB24246D7
:1066A400D2B22100C9B25846FEF733FFFF2001F0F1
:1066B400C6BC0398001D8246BAF1080F06D200201A
:1066C40004A901F80A001AF1010AF5E704AB220053
:1066D400D2B24146C9B25846FFF71AF99DF80810DC
:1066E4005846FEF777FF09E14846C0B200280ED1AC
:1066F4009DF80810582041430BEB010090F82A0044
:10670400032802D05FF0010901E05FF00009484668
:10671400C0B200280ED0BF48019000200090002392
:106724004246D2B22100C9B25846FEF7F2FEFF201B
:1067340001F085BC9DF80810582041430BEB010083
:10674400B0F97A0010F1010F22D09DF808105820FA
:1067540041430BEB0100B0F97A0003F0A6FF9DF86A
:10676400082058214A430BEB0201A1F87A000020CB
:106774000090A94BA94A9DF80810584603F03AFF27
:106784009DF8082058214A430BEB0201A1F87A0036
:106794009DF80810582041430BEB0100008E0500C2
:1067A4009DF80810582041430BEB010090F832008B
:1067B4008DF809003879C0F3400000285CD038799E
:1067C400C0F38100D0F10400039017F10803039A89
:1067D4009DF808105846FEF7E3FD8DF824009DF857
:1067E4002400002811D05FF0006001909DF809009A
:1067F40000902B009BB24246D2B22100C9B2584647
:10680400FEF787FEFF2001F01ABC5FF058099DF8DF
:10681400080009FB00F05844B0F97A0003F045FF82
:106824009DF8081009FB01F15944A1F87A009DF87C
:10683400080009FB00F05844039941639DF80800DF
:1068440009FB00F05844012180F82A109DF8080043
:1068540009FB00F05844C06F00280AD09DF80B10C3
:1068640058469DF8082009FB02F90BEB0902D26F88
:106874009047002001F0E3BB3879C00727D5387A68
:10688400797A09020818B97A10EB0140F97A10EB09
:1068940001600390039A9DF808105846FFF72CF8FE
:1068A40081464846C0B2002811D05FF000600190D4
:1068B4009DF8090000902B009BB24246D2B2210001
:1068C400C9B25846FEF725FEFF2001F0B8BB602090
:1068D4008DF8100001208246BAF1080F06D200207C
:1068E40004A901F80A001AF1010AF5E704AB220031
:1068F400D2B24146C9B25846FFF70AF801F09EBB2E
:106904004046C0B2012840F028814846C0B2002861
:106914000ED19DF80810582041430BEB010090F86C
:106924002A00032802D05FF0010901E05FF00009AA
:106934004846C0B200280ED036480190002000908E
:1069440000234246D2B22100C9B25846FEF7E1FD07
:10695400FF2001F074BB9DF80810582041430BEB55
:106964000100B0F97A0010F1010F22D09DF808104F
:10697400582041430BEB0100B0F97A0003F095FE77
:106984009DF8082058214A430BEB0201A1F87A0034
:1069940000200090204B214A9DF80810584603F02F
:1069A40029FE9DF8082058214A430BEB0201A1F867
:1069B4007A009DF80810582041430BEB0100008E2B
:1069C40005009DF80810582041430BEB010090F896
:1069D40032008DF809009DF80810582041430BEB54
:1069E400010090F82B003979C1F30011884219D0C5
:1069F4000B4801909DF8090000902B009BB2424681
:106A0400D2B22100C9B25846FEF783FDFF2001F03F
:106A140016BB00BF2100000800B4C40435500008B0
:106A24000000030503AA9DF808105846FEF746FF28
:106A34000398082845D39DF80810582041430BEBD0
:106A4400010090F82B0000018DF810000DF11103E6
:106A540007229DF808105846FEF741FC8146484637
:106A6400C0B2002811D05FF0006001909DF80900C9
:106A740000902B009BB24246D2B22100C9B25846C4
:106A8400FEF747FDFF2001F0DABA58219DF808000F
:106A94004843584490F82B00002801D1012000E01D
:106AA40000209DF8082001FB02F1594481F82B00D5
:106AB40004AB2200D2B24146C9B25846FEF728FFC1
:106AC40062E19DF80810582041430BEB010090F857
:106AD4002B0000010399D1F1070150EA410050F065
:106AE40001008DF810000DF11103039A9DF80810B0
:106AF4005846FEF7F4FB81464846C0B2002811D040
:106B04005FF0006001909DF8090000902B009BB29B
:106B14004246D2B22100C9B25846FEF7FAFCFF2021
:106B240001F08DBA0398401C8246BAF1080F06D2D0
:106B3400002004A901F80A001AF1010AF5E704ABE0
:106B44002200D2B24146C9B25846FEF7E1FE9DF892
:106B540008105846FEF73EFD16E14846C0B200282C
:106B64000ED19DF80810582041430BEB010090F81A
:106B74002A00022802D05FF0010901E05FF0000959
:106B84004846C0B200280FD0DFF8D00B0190002097
:106B9400009000234246D2B22100C9B25846FEF703
:106BA400B8FCFF2001F04BBA9DF80810582041436F
:106BB4000BEB0100B0F97A0010F1010F24D09DF81D
:106BC4000810582041430BEB0100B0F97A0003F0A0
:106BD4006CFD9DF8082058214A430BEB0201A1F8F3
:106BE4007A0000200090DFF8803CDFF8742B9DF8D9
:106BF4000810584603F0FEFC9DF8082058214A432B
:106C04000BEB0201A1F87A009DF8081058204143CB
:106C14000BEB0100008E05009DF80810582041433D
:106C24000BEB010090F832008DF8090003AA9DF8DF
:106C340008105846FEF742FE0398002831D19DF80B
:106C44000810582041430BEB0100B0F97A0003F01F
:106C54002CFD9DF8082058214A430BEB0201A1F8B2
:106C64007A0001219DF80820582042430BEB0200D2
:106C740080F82A109DF80810582041430BEB0100BE
:106C8400C06F00280AD09DF80B1058469DF80830B4
:106C9400582253430BEB0302D26F9047002001F0BC
:106CA400CEB90398082829D39DF8081058204143E9
:106CB4000BEB010090F82B0000018DF810000DF192
:106CC400110307229DF808105846FEF708FB814679
:106CD4004846C0B200284FD05FF0006001909DF894
:106CE400090000902B009BB24246D2B22100C9B2E7
:106CF4005846FEF70EFCFF2001F0A1B99DF80810DC
:106D0400582041430BEB010090F82B00000103993C
:106D1400D1F1070150EA410050F001008DF8100054
:106D24000DF11103039A9DF808105846FEF7D7FA9F
:106D340081464846C0B2002811D05FF0006001903F
:106D44009DF8090000902B009BB24246D2B221006C
:106D5400C9B25846FEF7DDFBFF2001F070B9039875
:106D6400401C8246BAF1080F06D2002004A901F89B
:106D74000A001AF1010AF5E704AB2200D2B2414637
:106D8400C9B25846FEF7C4FD01F058B9387A797A89
:106D940050EA0120B97A50EA0140F97A50EA0160D8
:106DA4000B904046C0B2012809D14846C0B2002821
:106DB40040D19DF808105846FEF70CFC3AE04846CE
:106DC400C0B2002836D19DF80810582041430BEB7F
:106DD4000100B0F97A0003F068FC9DF808205821FE
:106DE4004A430BEB0201A1F87A0080219DF80820A8
:106DF400582042430BEB020080F82A100B999DF8AF
:106E04000820582042430BEB0200C1629DF8081091
:106E1400582041430BEB0100C06F00280AD09DF8B5
:106E24000B1058469DF80830582253430BEB0302CD
:106E3400D26F904701F002B9387910F003008DF851
:106E44000A004046C0B2012840F064829DF80A005E
:106E5400002840F0A580B879797951EA00210D0025
:106E6400F8798DF809004846C0B2002811D1DFF83E
:106E7400EC0801909DF8090000902B009BB242465B
:106E8400D2B22100C9B25846FEF743FBFF2001F0FD
:106E9400D6B802AA4146C9B25846FEF7A7FC8146B5
:106EA4004846C0B2002811D0DFF8B00801909DF820
:106EB400090000902B009BB24246D2B22100C9B215
:106EC4005846FEF726FBFF2001F0B9B805200190D3
:106ED4009DF8090000902B009BB22200D2B29DF8CD
:106EE40008105846FEF7A3FB3879C0F380019DF8DB
:106EF4000820582042430BEB020080F86410397AD2
:106F04009DF80820582042430BEB020080F86510DE
:106F14009DF808105846FEF767F90890089800286D
:106F240010D0089801909DF8090000902B009BB2A6
:106F34004246D2B22100C9B25846FEF7EAFAFF200F
:106F440001F07DB803AA9DF808105846FEF7B6FC78
:106F540003999DF80820582042430BEB02008166F8
:106F6400C2208DF8100004A84570290089B2090ACE
:106F740081709DF80910C170039901710399090A80
:106F840041710399090C81710399090EC17104AB14
:106F94002200D2B24146C9B25846FEF7B9FC95E385
:106FA4009DF80A0001282CD14846C0B200280ED111
:106FB4009DF80810582041430BEB010090F82A007B
:106FC400052802D05FF0010901E05FF0000948469E
:106FD400C0B200280FD0DFF8840701900020009091
:106FE40000234246D2B22100C9B25846FEF791FAB4
:106FF400FF2001F024B89DF808105846FEF7EAFA7D
:1070040064E39DF80A00022804D09DF80A000328CE
:1070140040F05C834846C0B200280ED19DF80810A9
:10702400582041430BEB010090F82A00052802D0B8
:107034005FF0010901E05FF000094846C0B2002892
:107044000FD0DFF81807019000200090002342467B
:10705400D2B22100C9B25846FEF75BFAFF2000F015
:10706400EEBF9DF80810582041430BEB0100B0F926
:107074007A0010F1010F24D09DF8081058204143E4
:107084000BEB0100B0F97A0003F00FFB9DF8082028
:1070940058214A430BEB0201A1F87A00002000902A
:1070A400DFF8C437DFF8B8269DF80810584603F017
:1070B400A1FA9DF8082058214A430BEB0201A1F8DC
:1070C4007A009DF80810582041430BEB0100008E14
:1070D40005009DF80810582041430BEB010090F87F
:1070E40032008DF809009DF80A00022874D1B9799C
:1070F4009DF80820582042430BEB020080F86510ED
:10710400787910F07F008DF8190003AA9DF8081013
:107114005846FEF7D3FB039800282CD158209DF83D
:1071240019109DF8082042435A4492F86D20914268
:1071340021D19DF8081000FB01F0584490F86E002E
:10714400800050F0C1008DF8100001208246BAF191
:10715400080F06D2002004A901F80A001AF1010A56
:10716400F5E704AB2200D2B24146C9B25846FEF755
:10717400CFFB00F063BF58219DF8080048430BEB98
:1071840000029DF808004843584490F86C309DF87C
:1071940019C0072000FB0CFC5CFA83F090639DF897
:1071A400080048435844406B9DF8082001FB02F155
:1071B4005944896B88420FD2DFF8A0050190002062
:1071C400009000234246D2B22100C9B25846FEF7CD
:1071D400A0F9FF2000F033BF9DF808105820414368
:1071E4000BEB0100816B9DF80820582042430BEB08
:1071F400020080F86C10012006009DF80810582049
:1072040041430BEB010090F865003100C9B288429C
:10721400C0F05C829DF80810582041430BEB01003C
:1072240080F86D6003AA9DF808105846FEF746FBE7
:10723400039808282AD38DF810600DF11103072252
:107244009DF808105846FEF74AF881464846C0B2F1
:10725400002811D05FF0006001909DF809000090B3
:107264002B009BB24246D2B22100C9B25846FEF767
:1072740050F9FF2000F0E3BE04AB2200D2B2414635
:10728400C9B25846FEF744FB761CB6E756F08000B8
:107294008DF810000DF11103039A9DF8081058465B
:1072A400FEF71DF881464846C0B2002811D05FF0B1
:1072B400006001909DF8090000902B009BB24246AB
:1072C400D2B22100C9B25846FEF723F9FF2000F0DC
:1072D400B6BE0398401C8246BAF1080F06D20020BD
:1072E40004A901F80A001AF1010AF5E704AB220027
:1072F400D2B24146C9B25846FEF70AFB0399D1F10E
:1073040007019DF80820582042430BEB020080F847
:107314006E10DBE19DF80A00002804D09DF80A00F5
:10732400022840F08E814846C0B200280ED19DF854
:107334000810582041430BEB010090F82A00042860
:1073440002D05FF0010901E05FF000094846C0B2D5
:1073540000280FD0DFF804040190002000900023DF
:107364004246D2B22100C9B25846FEF7D2F8FF20F5
:1073740000F065BE9DF80810582041430BEB010056
:10738400B0F97A0010F1010F24D09DF808105820AC
:1073940041430BEB0100B0F97A0003F086F99DF844
:1073A400082058214A430BEB0201A1F87A0000207F
:1073B4000090DFF8B434DFF8A8239DF8081058468D
:1073C40003F018F99DF8082058214A430BEB0201F9
:1073D400A1F87A009DF80A00002820D158209DF8D1
:1073E400081041435944098E0D009DF8081041438B
:1073F400594491F832108DF809109DF80810414352
:1074040059443A79C2F3800281F864209DF8081047
:1074140000FB01F05844397A80F8651073E0B979BB
:107424009DF80820582042430BEB020080F86510B9
:10743400787910F07F008DF8190003AA9DF80810E0
:107444005846FEF73BFA039800282CD158209DF8A3
:1074540019109DF8082042435A4492F86D20914235
:1074640021D19DF8081000FB01F0584490F86E00FB
:10747400800050F0C1008DF8100001208246BAF15E
:10748400080F06D2002004A901F80A001AF1010A23
:10749400F5E704AB2200D2B24146C9B25846FEF722
:1074A40037FA00F0CBBD58219DF8080048430BEB98
:1074B40000029DF808004843584490F86C309DF849
:1074C40019C0072000FB0CFC5CFA83F090639DF864
:1074D400080048435844406B9DF8082001FB02F122
:1074E4005944896B88420ED29C4801900020009038
:1074F40000234246D2B22100C9B25846FEF709F829
:10750400FF2000F09CBD9DF80810582041430BEB70
:107514000100816B9DF80820582042430BEB0200C8
:1075240080F86C10012006009DF808105820414393
:107534000BEB010090F865003100C9B28842C0F03D
:10754400C5809DF80810582041430BEB010080F8DA
:107554006D6003AA9DF808105846FEF7AFF903982A
:1075640008282AD38DF810600DF1110307229DF825
:1075740008105846FDF7B3FE81464846C0B20028BD
:1075840011D05FF0006001909DF8090000902B007D
:107594009BB24246D2B22100C9B25846FDF7B9FFA8
:1075A400FF2000F04CBD04AB2200D2B24146C9B268
:1075B4005846FEF7ADF9761CB6E756F080008DF814
:1075C40010000DF11103039A9DF808105846FDF7B9
:1075D40086FE81464846C0B2002811D05FF00060A4
:1075E40001909DF8090000902B009BB24246D2B254
:1075F4002100C9B25846FDF78CFFFF2000F01FBDE3
:107604000398401C8246BAF1080F06D2002004A950
:1076140001F80A001AF1010AF5E704AB2200D2B21C
:107624004146C9B25846FEF773F90399D1F10701EF
:107634009DF80820582042430BEB020080F86E109E
:1076440044E09DF80A00012831D19DF80810582023
:1076540041430BEB0100B0F97A0003F026F89DF8E2
:10766400082058214A430BEB0201A1F87A000121BA
:107674009DF80820582042430BEB020080F82A10A2
:107684009DF80810582041430BEB0100C06F0028FF
:107694000AD09DF80B1058469DF8083058225343E1
:1076A4000BEB0302D26F9047002000F0C8BC2B48BC
:1076B40001900020009000234246D2B22100C9B2BA
:1076C4005846FDF726FFFF2000F0B9BC00F0B6BC19
:1076D4004046C0B2012840F089824846C0B2002822
:1076E40000F09580387910F001008DF80A009DF8BB
:1076F4000A0000280ED019480190002000900023B1
:107704004246D2B22100C9B25846FDF702FFFF201B
:1077140000F095BCB879797951EA00210D00F87927
:107724008DF8090002AA4146C9B25846FEF75EF830
:1077340081464846C0B2002814D0084801909DF8FC
:10774400090000902B009BB24246D2B22100C9B27C
:107754005846FDF7DEFEFF2000F071BC2100000852
:1077640035500008042001909DF8090000902B007A
:107774009BB22200D2B29DF808105846FDF757FF7D
:1077840058209DF8081041435944012281F86F2084
:107794009DF80810414359443A79C2F3800281F8B4
:1077A40064203979890716D59DF8081000FB01F08B
:1077B4000BEB00013A7A7B7A4FF4807043439A18BA
:1077C400BB7A5FF4803000FB0322FB7A5FF08070A9
:1077D40000FB03228A66A0208DF8100004A84570DF
:1077E400290089B2090A81709DF80910C17010211D
:1077F40001710021C1718171417104AB2200D2B2C7
:107804004146C9B25846FEF783F800F014BC9DF80F
:107814000810582041430BEB010090F86F00012839
:1078240040F0F4809DF80810582041430BEB010010
:10783400B0F97A0010F1010F27D09DF808105820F4
:1078440041430BEB0100B0F97A0002F02EFF9DF8E2
:10785400082058214A430BEB0201A1F87A000020CA
:107864000090014B02E000BF00B4C404DFF8D42749
:107874009DF80810584602F0BDFE9DF808205821D6
:107884004A430BEB0201A1F87A00387910F07F002B
:1078940006003879000652D53100C9B29DF8082097
:1078A400582042430BEB020090F86D00401C8142CB
:1078B4001ED158209DF8081041435944022281F8F2
:1078C4006F209DF808104143594481F86D600821E8
:1078D4000991391D01919DF8081000FB01F05844ED
:1078E40070300090099A0199009802F02BFE0098DC
:1078F400A2208DF8100004A99DF8082058204243C6
:107904000BEB020090F86D00487010208870002086
:10791400C871887148710871C87004AB2200D2B272
:107924004146C9B25846FDF7F3FF00219DF80820EF
:10793400582042430BEB020080F86D107BE33100CA
:10794400C9B29DF80820582042430BEB020090F87E
:107954006D00401C81422DD19DF8081058204143F0
:107964000BEB010080F86D607B1D07229DF8081069
:107974005846FDF715FD81464846C0B2002819D087
:1079840058205FF0006101919DF80810414359446B
:1079940091F8321000919DF8081000FB01F0584452
:1079A400038E4246D2B22100C9B25846FDF7B1FD5A
:1079B400FF2044E33000C0B2102840F03C83A220F2
:1079C4008DF8100004A99DF80820582042430BEBC1
:1079D400020090F86D004870102088700020C87173
:1079E400887148710871C87004AB2200D2B2414654
:1079F400C9B25846FDF78CFF00219DF80820582095
:107A040042430BEB020080F86D1014E39DF808105C
:107A1400582041430BEB010090F86F00022840F01E
:107A24000A833879C0070ED4DFF81C0601900020C1
:107A3400009000234246D2B22100C9B25846FDF755
:107A440068FDFF20FBE29DF80810582041430BEB32
:107A54000100B0F97A0010F1010F24D09DF808104C
:107A6400582041430BEB0100B0F97A0002F01DFEEF
:107A74009DF8082058214A430BEB0201A1F87A0033
:107A840000200090DFF8C435DFF8B8259DF8081011
:107A9400584602F0AFFD9DF8082058214A430BEBED
:107AA4000201A1F87A003879C0F382008DF81D0034
:107AB4009DF80810582041430BEB010010F17103AD
:107AC4009DF81D20D2F107029DF808105846FDF7D5
:107AD40067FC81464846C0B2002819D058205FF0A0
:107AE400006101919DF808104143594491F8321006
:107AF40000919DF8081000FB01F05844038E4246A3
:107B0400D2B22100C9B25846FDF703FDFF2096E228
:107B14009DF80810582041430BEB0100806E0028AB
:107B240025D058209DF8081041435944896E9DF88A
:107B3400082042435A44926B914218D0DFF808154A
:107B440001919DF808104143594491F83210009175
:107B54009DF8081000FB01F05844038E4246D2B24F
:107B64002100C9B25846FDF7D4FCFF2067E2A120EA
:107B74008DF8100001208246BAF1080F06D20020C9
:107B840004A901F80A001AF1010AF5E704AB22007E
:107B9400D2B24146C9B25846FDF7BAFE9DF8081064
:107BA4005846FDF7C1FA08900898002818D05820C4
:107BB400089901919DF808104143594491F83210F5
:107BC40000919DF8081000FB01F05844038E4246D2
:107BD400D2B22100C9B25846FDF79BFCFF202EE229
:107BE4009DF808105846FDF7F5FC24E24846C0B25B
:107BF40000280ED0DFF850040190002000900023EC
:107C04004246D2B22100C9B25846FDF782FCFF2099
:107C140015E29DF80810582041430BEB0100B0F920
:107C24007A0010F1010F24D09DF808105820414328
:107C34000BEB0100B0F97A0002F037FD9DF8082043
:107C440058214A430BEB0201A1F87A00002000906E
:107C5400DFF8F833DFF8EC239DF80810584602F0FB
:107C6400C9FC9DF8082058214A430BEB0201A1F8F6
:107C74007A009DF80810582041430BEB010090F85E
:107C84006F00002846D13879C00700F1D48158200C
:107C94009DF8081041435944012281F86F209DF852
:107CA4000810414359443A79C2F3800281F86420B0
:107CB4003979890716D59DF8081000FB01F00BEB04
:107CC40000013A7A7B7A4FF4807043439A18BB7A66
:107CD4005FF4803000FB0322FB7A5FF0807000FBCE
:107CE40003228A66A3208DF8100001208246BAF18F
:107CF400080F06D2002004A901F80A001AF1010AAB
:107D0400F5E704AB2200D2B24146C9B25846FDF7AA
:107D1400FFFD90E19DF80810582041430BEB010052
:107D240090F86F00012840F0C180387910F07F008E
:107D340006003879000652D53100C9B29DF80820F2
:107D4400582042430BEB020090F86D00401C814226
:107D54001ED158209DF8081041435944022281F84D
:107D64006F209DF808104143594481F86D60082143
:107D74000991391D01919DF8081000FB01F0584448
:107D840070300090099A0199009802F0DBFB00988A
:107D9400A2208DF8100004A99DF808205820424321
:107DA4000BEB020090F86D004870102088700020E2
:107DB400C871887148710871C87004AB2200D2B2CE
:107DC4004146C9B25846FDF7A3FD00219DF808209D
:107DD400582042430BEB020080F86D102BE1310078
:107DE400C9B29DF80820582042430BEB020090F8DA
:107DF4006D00401C81422DD19DF80810582041434C
:107E04000BEB010080F86D607B1D07229DF80810C4
:107E14005846FDF7C5FA81464846C0B2002819D035
:107E240058205FF0006101919DF8081041435944C6
:107E340091F8321000919DF8081000FB01F05844AD
:107E4400038E4246D2B22100C9B25846FDF761FB07
:107E5400FF20F4E03000C0B2102840F0EC80A220F3
:107E64008DF8100004A99DF80820582042430BEB1C
:107E7400020090F86D004870102088700020C871CE
:107E8400887148710871C87004AB2200D2B24146AF
:107E9400C9B25846FDF73CFD00219DF80820582042
:107EA40042430BEB020080F86D10C4E09DF808100B
:107EB400582041430BEB010090F86F00022840F07A
:107EC400BA803879C0070DD45F4801900020009033
:107ED40000234246D2B22100C9B25846FDF719FB2D
:107EE400FF20ACE03879C0F382008DF81D009DF8C6
:107EF4000810582041430BEB010010F171039DF869
:107F04001D20D2F107029DF808105846FDF748FAE3
:107F140081464846C0B2002819D058205FF000615D
:107F240001919DF808104143594491F83210009191
:107F34009DF8081000FB01F05844038E4246D2B26B
:107F44002100C9B25846FDF7E4FAFF2077E09DF816
:107F54000810582041430BEB0100806E002824D008
:107F640058209DF8081041435944896E9DF8082013
:107F740042435A44926B914217D0334901919DF880
:107F840008104143594491F8321000919DF80810AB
:107F940000FB01F05844038E4246D2B22100C9B21C
:107FA4005846FDF7B6FAFF2049E0A1208DF81000ED
:107FB40001208246BAF1080F06D2002004A901F874
:107FC4000A001AF1010AF5E704AB2200D2B24146D5
:107FD400C9B25846FDF79CFC9DF80810582041434F
:107FE4000BEB0100B0F97A0002F05FFB9DF808206A
:107FF40058214A430BEB0201A1F87A0001219DF8B4
:108004000820582042430BEB020080F82A109DF808
:108014000810582041430BEB0100C06F00280AD020
:108024009DF80B1058469DF80830582253430BEB2B
:108034000302D26F904701E0FF2000E000200DB062
:10804400BDE8F08F355000082100000800B4C404D6
:10805400F0B40300002458694588986946882800CC
:1080640080B2002801D1FF2030E000273000AC4668
:1080740080B21FFA8CFC604520D35868AC461FFAC6
:108084008CFC00EBCC000079042801DAFF201DE011
:108094005868AC461FFA8CFC50F83C00C06A007863
:1080A400020010008C46C0B25FFA8CFC604502D11D
:1080B4000120040002E06D1C7F1CD7E72000C0B241
:1080C400002801D1FE2001E03800C0B2F0BC7047A6
:1080D4002DE9F34F85B0040015001E00109F9DF894
:1080E40018102000FFF7B4FF80464046C0B2FE28B7
:1080F40002DB4046C0B200E102AB02224146C9B2F3
:108104002000FDF793FB81464846C0B2002801D108
:10811400FF20F2E002AA02212000FDF767FB8DF8A0
:1081240009009DF80900002801D0FF20E5E09DF832
:108134005400002815D0042001903000C0B20090F3
:108144002B009BB24246D2B29DF808102000FDF7E6
:108154006EFA9DF808105820414304EB010087662D
:108164000DE0022001903000C0B200902B009BB2C1
:108174004246D2B29DF808102000FDF758FA5FF08D
:10818400580B9DF808000BFB00F0204447639DF852
:1081940008000BFB00F020449DF8441080F8781090
:1081A4009DF808000BFB00F0204410F13C0A212F3D
:1081B4001FD3380000F0ECFD9DF808100BFB01F113
:1081C4002144C8659DF808000BFB00F020440766B5
:1081D4009DF808000BFB00F02044C06D002801D17D
:1081E400FE208AE09DF808000BFB00F02044C06DDF
:1081F40082465FF00009B94507D2129810F80900C9
:108204000AF8090019F10109F5E79DF8540000285E
:1082140014D0C2208DF80C005FF0000A5046C0B2A2
:10822400042847DA5FEACA003900C14003A852466D
:10823400D2B2104401711AF1010AEFE7052F24D2DA
:10824400D7F10400800050F023008DF80C005FF09B
:10825400040A5046C0B2082810DA9DF808000BFB47
:1082640000F020445146C9B2084490F8380003A9EC
:108274005246D2B288541AF1010AEAE79DF808007E
:108284000BFB00F02044876314E021208DF80C00E0
:108294005FF0000A5046C0B204280BDA5FEACA0055
:1082A4003900C14003A85246D2B2104401711AF1F8
:1082B400010AEFE703A84570290089B2090A817011
:1082C400C6709DF808000BFB00FB04EB0B00139930
:1082D400C16703AB4246D2B202212000FDF718FB6E
:1082E40083465846C0B2002806D09DF808102000E6
:1082F400FDF770F9FF2000E0002007B0BDE8F08F23
:10830400F8B586B004000D0016001F009DF840006B
:108314000590012004900F9803900E9802909DF808
:10832400340001900C9800903B00DBB2320092B212
:108334002900C9B22000FFF7CBFE07B0F0BD2DE93C
:10834400F84F04000D0016001F00DDF828800020FF
:10835400C8F800002900C9B22000FFF779FE814661
:108364004846C0B2FE2803DB00203860852086E042
:108374006B4602224946C9B22000FDF757FA8246ED
:108384005046C0B2002803D000203860852076E033
:1083940058219DF800004843204490F82A00012801
:1083A4001CD09DF800004843204490F82A008028FF
:1083B40007D09DF800004843204490F82A008528FF
:1083C4000AD19DF8000001FB00F104EB0100C06A32
:1083D400C8F8000000203860032050E09DF8000039
:1083E40048432044406B002809D19DF800004843CD
:1083F40020449DF800204A432244926B426338682B
:108404009DF800204A432244526B904203D200203C
:1084140038608A2033E09DF8000048432044406BD4
:1084240038609DF800004843204410F13C029DF858
:10843400000048432044C06D00280ED09DF8000081
:1084440048432044006E002807D09DF8000001FB3B
:1084540000F104EB0100C06D02005FF0000B38680E
:10846400834506D212F80B0006F80B001BF1010B32
:10847400F5E79DF800102000FDF7ACF80120BDE8F9
:10848400F28F30B4002513E050F8042BD30744BF17
:10849400A9F101039A18091F042942F8045BFAD2CE
:1084A40013468C0744BF15809B1CC90748BF1D7029
:1084B40050F8041B0029E7D130BC704710B4040005
:1084C400002010BC70472DE9F14F84B00D00160058
:1084D4001C000E9FDDF83C8003AA01A9280080B28D
:1084E400049BD3F84C33984781460198002801D067
:1084F400019898E0300099F80410C0B288420DD376
:10850400DFF8ECA2CDF800A0002300223100C9B2AC
:10851400280080B2FFF7D2FF504684E09DF8400067
:10852400002816D0D9F800103200D2B20C204243F1
:10853400885CC0070DD5DFF8BCA2CDF800A00023ED
:1085440000223100C9B2280080B2FFF7B7FF5046BD
:1085540069E0002C02D15FF0006064E00C2039680F
:10856400D9F800203300DBB243431A4452689142E5
:108574000AD2D9F800103200D2B200FB02F008444B
:10858400406838609C484EE0D9F800103200D2B2FE
:1085940042431144497888F80010D9F80010320099
:1085A400D2B242431144D1F804A098F8001009292A
:1085B40013D0CDF808A0D9F800103200D2B200FBD5
:1085C40002F0084480680090A346029A0099584635
:1085D40001F0B8FFC7F800A024E0D9F80010320079
:1085E400D2B200FB02F0084481680A00386800280F
:1085F40001D0386800E0504601EB0003A446087837
:10860400002808D0994206D208788CF80000491C4A
:108614001CF1010CF3E7881A38603868504501D220
:1086240000200870002005B0BDE8F08F2DE9FC4F54
:1086340085B004000D001600109F03AA02A92800AB
:1086440080B2D4F84C33984780460298002801D071
:108654000298C9E0300098F80410C0B288420DD3E3
:10866400DFF88C91CDF800903B6800223100C9B24C
:10867400280080B2FFF722FF4846B5E09DF8440089
:10868400002816D0D8F800103200D2B20C20424391
:10869400885C02280DD1DFF86491CDF800903B6826
:1086A40000223100C9B2280080B2FFF707FF484614
:1086B4009AE05FF00C0AD8F800003100C9B20AFB56
:1086C40001F1084440788DF80400D8F80000310026
:1086D400C9B20AFB01F10844D0F8049038680028B4
:1086E40009D03868484506D09DF8040009286CD1A3
:1086F4003868484569D206999DF80400626A904733
:108704000290029800280BD0029800903B684A46D9
:108714003100C9B2280080B2FFF7D0FE029863E0AE
:108724003868049006980090D8F800003100C9B267
:108734000AFB01F10844D0F808B0049A009958469D
:1087440001F000FF9DF8040009280DD13868484560
:108754000AD2D8F800003100C9B20AFB01F108447A
:108764008068396800224254C7F8009003980028B2
:1087740017D003983100C9B250F82100002810D056
:108784003200D2B241462000039BB4465FFA8CFC0F
:1087940053F82C30984702900298002801D0029890
:1087A40022E0D8F800003100C9B20AFB01FA10F83F
:1087B4000A00400707D53200D2B2290089B220004E
:1087C400D4F85033984700200EE0C7F80090DFF843
:1087D40030A0CDF800A03B684A463100C9B2280059
:1087E40080B2FFF76BFE504607B0BDE8F08F000083
:1087F4001100090601000106050004050200010636
:1088040010000706F8B504000D0016001F003A001A
:108814003100280080B2D4F84C339847F2BDFEB53D
:1088240004000D0016001F006B4601AA290089B23E
:108834002000FFF7E7FF0100019800280CD1009801
:10884400002809D030000A79C0B2904204D20098BE
:108854003200D2B240F822700198FEBD7047000089
:1088640000F5E0700268914203D343681A449142D0
:1088740002D380680028F5D170471849086880B988
:108884004FF4805048604FF480324FF0FF30C8609E
:1088940008610420124B8A604861C3F8BC01114886
:1088A40008600120704701F1080313F0070F0EBFA1
:1088B4000023C3F1080303F007031944D21A8161AA
:1088C400C26042F001034B60091D4FF0280C41F8CF
:1088D40002C0024A1369C36170470000D81A00201D
:1088E400881700206859883C2DE9F04705460E4654
:1088F40091467068C10706EB09083AD4346810F051
:10890400030F00F042826042296906448E42A1446A
:10891400C0F037826869864200F0BC80E4081F2CEE
:1089240055D8D6F80CA0B768564508BF02F0D8F859
:10893400BE4208BF02F0D4F87068C008C000B0EBB3
:10894400C40F18BF02F0CCF805F1280000EBC400F6
:10895400874205D029698F4236D3FA68B24233D1AF
:10896400BA4523D12868012101FA04F420EA040459
:108974002C6029698845C0F00482D8F80440A00717
:1089840000F16081AA69904540F09780E868484406
:10899400E860AE6140F0010070606869864240F0B2
:1089A400F48100216961A960BDE8F087824506D0A1
:1089B4002869824508D3DAF80810B14204D1C7F80F
:1089C4000CA0CAF80870D4E702F08AF8D1E7F4687A
:1089D400B769B4420BD0B068884222D3C168B142AF
:1089E40004BFA268B2421CD1C460A0601BE006F1BF
:1089F4001402146834B906F1100214689CB101E041
:108A04001A46146804F114031868002802BF04F11C
:108A1400100318680028F3D18A4202D300211160A0
:108A240001E002F05DF8002FA3D0F16905F598701C
:108A340000EB81000268964209D10460200011D144
:108A4400F0696968012282409143696091E728696D
:108A5400874205D33969B14214BF7C613C6101E0AE
:108A640002F03EF8002C84D029698C42ACD3A76173
:108A7400306928B1884226BF2061846102F030F851
:108A8400706900283FF475AF296988429CD36061FE
:108A940084616EE798F8040000F0030003287FF473
:108AA40068AFC5F8089049F00101D8F804004008FF
:108AB4004000C8F8040071600AE0686980450BD181
:108AC400A9686E618944C5F8089049F00100706096
:108AD40046F80990BDE8F087E408E400A144E408FE
:108AE4001F2C3AD8D8F80CA0D8F80870D04508BF85
:108AF40001F0F6FFB84508BF01F0F2FFD8F8040012
:108B0400C008C000B0EBC40F18BF01F0E9FF05F1C5
:108B1400280000EBC400874207D029698F42C0F0C7
:108B24008380FA68424540F07F80BA4507D12868BF
:108B3400012101FA04F420EA04042C6076E0824561
:108B440006D0286982456FD3DAF8081041456BD105
:108B5400C7F80CA0CAF8087068E0D8F80C40D8F838
:108B6400187044450CD0D8F80800884222D3C16854
:108B7400414504BFA26842451CD1C460A0601BE00B
:108B840008F11402146834B908F1100214689CB195
:108B940001E01A46146804F114031868002802BF9F
:108BA40004F1100318680028F3D18A4202D300218B
:108BB400116001E001F094FF002F37D0D8F81C10A9
:108BC40005F5987000EB8100026890450AD10460B5
:108BD400200012D1D8F81C00696801228240914318
:108BE400696023E02869874205D33969414514BF88
:108BF4007C613C6101E001F073FFBCB129698C42E6
:108C040012D3A761D8F8100028B1884226BF20618A
:108C1400846101F065FFD8F8140038B129698842ED
:108C240002D36061846101E001F05AFF49F0010060
:108C3400706046F8099069698E420CD1C5F80890B5
:108C4400BDE8F08764086400C8F8044049F00100F6
:108C5400706046F809904FEAD9071F2F23D805F111
:108C6400280000EBC704A046B9F1100F38BF01F08B
:108C740037FF286820FA07F1CA0705D4012101FA51
:108C840007F707432F6006E0A068296988422CBFD4
:108C9400804601F025FFA660C8F80C60C6F808807D
:108CA400F460BDE8F0875FEA192008BF002123D0F3
:108CB400B0F5803F28BF1F211ED2A0F58072120C90
:108CC40002F008029040A0F58051090C01F0040163
:108CD4008840A0F580431B0CC2F10E0203F002038E
:108CE400521AD21A984002EBD032D01D29FA00F160
:108CF40001F0010101EB420105F59872002302EB3A
:108D04008100F161736133616A6822FA01F3DC075F
:108D140007D4012303FA01F1114369600660B061CD
:108D24001DE002681F291DBF4908C1F1190109FA94
:108D340001F1494600E002465068C008C0004845B9
:108D440011D002F11003C80F03EB80034900186827
:108D54000028F0D12869834213D31E60B261F66003
:108D6400B660BDE8F087296990688A4228BF8842C6
:108D740007D3C6609660B060F2600020B061BDE8C1
:108D8400F087BDE8F04701F0ABBEBDE8F087000016
:108D94002DE9F84F84B00646AFF30080F52E1E4D42
:108DA40080F00F820B2E31BF10260B36F608F6002A
:108DB4002868F408E04010F0030F4AD0C04300F0E4
:108DC4000100041905F1280000EBC408E700D8F8F5
:108DD40008607068C008C000B84218BF01F080FE87
:108DE400D6F80890464508BF01F07AFE4E4508BF04
:108DF40001F076FE7068C008C000B84218BF01F0E8
:108E04006FFEC8450AD12868012101FA04F420EA5A
:108E140004042C6010E000BF8817002028698145F5
:108E240008D3D9F80C10B14204D1C8F80890C9F895
:108E34000C8001E001F054FE47F00300311D706026
:108E4400301DCA5942F00102C25106F1080800F06F
:108E540010BFA968B14280F09F83002800F0A2806F
:108E64004FF0010808FA04F1490000FA04F44842FA
:108E740001430C4060420440641E200B00F01000CB
:108E8400C440610901F00801CC40A20802F00402C8
:108E9400D440630803F002030818DC401018C4F33C
:108EA400400718183818FC40241805F1280000EB76
:108EB400C40AE700DAF80890D9F80400C008C00032
:108EC400B84218BF01F00CFED9F808B0D14508BF6C
:108ED40001F006FED94508BF01F002FED9F80400EE
:108EE400C008C000B84218BF01F0FAFDDA4506D147
:108EF400286808FA04F420EA04042C600DE02969C7
:108F04008B4508D3DBF80C00484504D1CAF808B0F7
:108F1400CBF80CA001E001F0E3FDBF1B46F0030019
:108F240009F10402C9F8040047F00101915109EB69
:108F340006020192D751AC684FEAD40ABAF11F0F66
:108F440088BF01F0CDFD34B3CDF800A005F12800B1
:108F54006E6900EBCA0AD346102C38BF01F0C0FD7D
:108F64002968009821FA00F2D30704D408FA00F023
:108F74000843286007E0DAF80800296988422CBF12
:108F8400834601F0ADFDCAF80860CBF80C60C6F862
:108F940008B0C6F80CA0AF6009F108080198686130
:108FA40000F067BE6868002800F01783414208405B
:108FB400401E010B01F01001C840420902F00802F2
:108FC400D040830803F00403D840440804F00204AA
:108FD4005118E0405918C0F34007611805F5987816
:108FE4007918F840401858F820104868C008C000A4
:108FF4008A46A0EB060B08E001464868C008C0009A
:10900400801B58453CBF83468A4608690028F3D133
:1090140049690029F1D128698245C0F0CF80DAF886
:109024000410C90806EB0B09C900494518BF01F033
:1090340057FD0AEB06008245019080F0BF80DAF804
:109044000C40DAF8187054450DD0DAF80800296994
:10905400884223D3C268524504BFA16851451DD13B
:10906400C460A0601CE00AF114010C6834B90AF170
:1090740010010C68A4B101E011460C6804F114025B
:109084001068002802BF04F1100210680028F3D110
:109094002869814202D300220A6001E001F020FD28
:1090A400002F34D0DAF81C0008EB800001688A45F0
:1090B40009D1046094B9DAF81C006968012282407D
:1090C4009143696023E02869874205D33969514592
:1090D40014BF7C613C6101E001F002FDBCB129696F
:1090E4008C4212D3A761DAF8100028B1884226BF57
:1090F4002061846101F0F4FCDAF8140038B12969C4
:10910400884202D36061846101E001F0E9FCBBF1B3
:10911400100F0ED249F003000AF10401CAF804004A
:109124000AF1040051F8092042F0010240F8092034
:109134003EE046F003010AF10402CAF804104BF0C1
:1091440001009051019941F80BB0A8680090C4083F
:109154001F2C88BF01F0C4FC009828B305F1280037
:1091640000996F6900EBC408C146102938BF01F0AB
:10917400B7FC286820FA04F1CA0705D4012101FAD2
:1091840004F404432C6007E0D8F8080029698842F5
:109194002CBF814601F0A4FCC8F80870C9F80C7013
:1091A400C7F80890C7F80C80C5F808B00198686142
:1091B4001AF1080800F0F08100F05BBD01F090FCAA
:1091C400EAE116F1400F28BF4FF0FF3680F0E4814A
:1091D4000B36F6086B68F600002B00F0DD810027E3
:1091E400300AC6F1000908BF002423D0B0F5803F3F
:1091F40028BF1F241ED2A0F58071090C01F00801BC
:109204008840A0F58052120C02F004029040A0F5B0
:109214008044240CC1F10E0104F00204891A091BD4
:10922400A04001EBD031C81D26FA00F404F001047B
:1092340004EB410405F5987858F8240030B31F2C4A
:109244000FBFB4464FEA540CCCF1190C06FA0CFCCF
:10925400BE46494601E04FEA4C0C4268D208D200AF
:10926400921B8A4202D2110007460CD04269103088
:109274004FEADC7950F82900002A1CBF8242964646
:109284000028E8D170468946A8BBB7BB012101FA82
:1092940004F4640060420443234000F07D8158429A
:1092A40003405B1E180B00F01000C340590901F085
:1092B4000801CB409A0802F00402D3405C0804F091
:1092C40002040818E3401018C3F3400C201860444B
:1092D40023FA0CF31B1858F823000CE008464168E5
:1092E400C908C900891B49453CBF8946074601692D
:1092F4000029F3D140690028F1D1002F00F04C81FE
:10930400A868801B814580F0478129698F42FFF45A
:1093140055AF7868C008C00006EB0901884218BF41
:1093240001F0DEFB07EB060B5F45BFF447AFFC68BB
:10933400D7F818A0BC420CD0B8682969884223D356
:10934400C268BA4204BFA168B9421DD1C460A0601A
:109354001CE007F114010C6834B907F110010C6822
:10936400A4B101E011460C6804F11402106800284D
:1093740002BF04F1100210680028F3D12869814269
:1093840002D300220A6001E001F0AAFBBAF1000F47
:1093940034D0F86908EB800001688F4208D104607A
:1093A400A4B9F8696968012282409143696025E0A3
:1093B4002869824508D3DAF81010B94214BFCAF8F4
:1093C4001440CAF8104001E001F08AFBB4B12969E5
:1093D4008C4211D3C4F818A0386928B1884226BF3A
:1093E4002061846101F07CFB786938B12969884285
:1093F40002D36061846101E001F072FBB9F1100FE6
:109404000CD2B14449F00300391D7860381D51F87D
:10941400092042F0010240F80920B9E046F00301B6
:109424003A1D796049F0010090514FEAD9004BF898
:1094340009901F2822D805F1280101EBC0042968EE
:1094440021FA00F2D307A04605D4012202FA00F063
:109454000843286006E0A068296988422CBF80463A
:1094640001F03EFBC4F808B007F10800C8F80CB0DE
:1094740040F8068007F10C018C5189E05FEA19205D
:1094840008BF002123D0B0F5803F28BF1F211ED282
:10949400A0F58072120C02F008029040A0F58051F1
:1094A400090C01F004018840A0F580431B0CC2F1B3
:1094B4000E0203F00203521AD21A984002EBD03281
:1094C400D01D29FA00F101F0010101EB420107F17D
:1094D4001403CBF81C1000229A5107F1100308EB77
:1094E40081009A516A6822FA01F3DC0711D401233E
:1094F40003FA01F111436960C0F800B0CBF8180019
:1095040007F1080107F10C0040F806B041F806B075
:109514003EE002681F291DBF4908C1F1190109FA7B
:1095240001F1494600E002465068C008C0004845C1
:1095340018D002F11003C80F03EB80034900186828
:109544000028F0D12869834220D3C3F800B007F182
:109554000C01CBF8182041F806B007F1080040F8D8
:1095640006B015E0296990688A4228BF88420DD365
:10957400C0F80CB007F10801C2F808B0885107F12F
:109584000C0082510022CBF8182001E001F0A8FA67
:1095940017F1080840F06D83A868B0421DD3811B01
:1095A4006A6910290AD390196861A96041F001031E
:1095B4004360415046F0030656600BE00021A96069
:1095C4006961131D40F003015160111D1C5844F0E2
:1095D40001040C5002F108084BE3E8688642C0F02D
:1095E4003883DFF8B89BD9F8000008B9FFF745F9CC
:1095F400D9F8081088192F30491E20EA01018E423B
:1096040080F0358305F5D877B86838B13A68891899
:109614008A4280F02C838842C0F0298301F064FAE6
:1096240000281CBFD0F8008010F1010F00F01F8348
:1096340039687A68414439608A4238BF7960AC69D4
:1096440004BB296909B1884200D22861002138612C
:10965400C7F81480F9614FF0FF31D9F800206A622D
:10966400296205F128020021D260926002F1080407
:1096740054611461891C10321F29F5D9A8F12802FC
:1096840001461DE005F5E0710A46814600E0926856
:10969400D2B11068536803449945F8D1107B03078D
:1096A40012D413689C420FD3D2F804C063449C4282
:1096B4000AD2C444C2F804C02146E86808EB000298
:1096C4002846FFF7F0F8C1E22869814538BFC5F89C
:1096D400109009EB080000E08968002900F0BD81C2
:1096E4000A688242F8D1087B020700F1B681086853
:1096F400C1F800904A6842444A6009F1080111F037
:10970400070F08BFCDF8049006D0C1F1080101F09D
:10971400070109EB0102019200F1080111F0070FA2
:1097240004D0C1F1080101F0070108448046019802
:10973400A8EB00018419A1EB060B274646F00306AB
:109744004660474528BF01F0CBF998F80400C107EB
:1097540058BF01F0C5F9BBF1100F38BF01F0C0F9D3
:10976400A869804508D1E9688B44C5F80CB0AF619D
:109774004BF0010078606CE1686980450AD1A96802
:109784008B44C5F808B06F614BF00100786047F86E
:109794000BB05EE1D8F8040000F00301012940F0A9
:1097A400B880C008C000C1081F29039040D8D8F869
:1097B40008200092D8F80C600291B04508BF01F06F
:1097C4008FF90098804508BF01F08AF9D8F80400A1
:1097D4000299C008C000B0EBC10F18BF01F080F9B6
:1097E4000299009A05F1280000EBC100824208D0DA
:1097F40011462A699142C0F08780CA68424540F008
:10980400838000998E4206D102982A6801238340FE
:109814009A432A607AE0864205D029698E4273D33E
:10982400B068404570D10098C6600099B1606DE0A1
:10983400D8F818000090D8F80C6046450DD0D8F838
:1098440008002969884223D3C268424504BFB1682D
:1098540041451DD1C660B0601CE008F114010E68DA
:1098640036B908F110010E68A6B101E011460E6880
:1098740006F114021068002802BF06F110021068F5
:109884000028F3D12869814202D300220A6001E052
:1098940001F026F90098002838D0D8F81C0005F506
:1098A400987101EB80000168884509D106609EB972
:1098B400D8F81C006968012282409143696025E060
:1098C40000982969884205D30169414514BF46615E
:1098D400066101E001F004F9C6B129698E4213D38F
:1098E4000098B061D8F8100028B1884226BF3061D2
:1098F400866101F0F5F8D8F8140038B12969884276
:1099040002D37061866101E001F0EAF803998844AA
:109914008B44D8F8041049084900C8F804104BF0E7
:10992400010078604FEADB0647F80BB01F2E22D8FF
:1099340005F1280000EBC604A146BBF1100F38BFA7
:1099440001F0CEF8286820FA06F1CA0705D40121EF
:1099540001FA06F606432E6006E0A06829698842EB
:109964002CBF814601F0BCF8A760C9F80C70C7F899
:109974000890FC606DE05FEA1B2008BF002123D043
:10998400B0F5803F28BF1F211ED2A0F58072120CB3
:1099940002F008029040A0F58051090C01F0040186
:1099A4008840A0F580431B0CC2F10E0203F00203B1
:1099B400521AD21A984002EBD032D01D2BFA00F181
:1099C40001F0010101EB4201F961002305F59872F0
:1099D4007B6102EB81003B616A6822FA01F3DE07D6
:1099E40007D4012303FA01F1114369600760B861E8
:1099F4001DE002681F291DBF4908C1F119010BFAB6
:109A040001F1594600E002465068C008C0005845BC
:109A140010D002F11003C80F03EB8003490018684B
:109A24000028F0D12869834211D31F60BA61FF6016
:109A3400BC600EE0296990688A4228BF884206D338
:109A4400C7609460B860FA600020B86101E001F07A
:109A540047F8019800F108080BE121462846FEF773
:109A6400FFFE0168406808440090A0F1270111F04E
:109A7400070000980EBF0021C1F1080101F00701A1
:109A84000844A0F12F0B04F110018B4538BFA34605
:109A94000BF11802002102920191A8F12802494613
:109AA4002846FEF700FF0BF1080010F0070F18BF5F
:109AB40001F016F81B20CBF8040005F5E07292E8DB
:109AC40009500BF1080181E8095000210BF108004D
:109AD400F961B861009A02980199C7F81090C7F823
:109AE4001480072300E0001D491C00F10807974279
:109AF4004360F8D30129D8BF00F0F2FFA34500F07A
:109B0400A580ABEB040B201D221D50F80B10490857
:109B1400490042F80B104BF0010060604FEADB098A
:109B240044F80BB0B9F11F0F22D805F1280000EB5F
:109B3400C907B846BBF1100F38BF00F0D1FF286841
:109B440020FA09F1CA0705D4012101FA09F10843F1
:109B5400286006E0B868296988422CBF804600F076
:109B6400BFFFBC60C8F80C40C4F80880E7606DE033
:109B74005FEA1B2008BF002123D0B0F5803F28BF37
:109B84001F211ED2A0F58072120C02F00802904030
:109B9400A0F58051090C01F004018840A0F5804330
:109BA4001B0CC2F10E0203F00203521AD21A98409F
:109BB40002EBD032D01D2BFA00F101F0010101EBD0
:109BC400420105F59872002302EB8100E1616361B3
:109BD40023616A6822FA01F3DF0707D4012303FA39
:109BE40001F1114369600460A0611DE002681F294E
:109BF4001DBF4908C1F119010BFA01F1594600E0F2
:109C040002465068C008C000584510D002F1100345
:109C1400C80F03EB8003490018680028F0D12869B5
:109C2400834211D31C60A261E460A4600EE0296940
:109C340090688A4228BF884206D3C4609460A060BA
:109C4400E2600020A06101E000F04AFFE86886427B
:109C54000DD2801BA969E8608A19AA6140F001004D
:109C6400506046F003064E6001F1080801E04FF031
:109C74000008AFF30080404605B0BDE8F08F00282F
:109C840000D170472DE9F047A0F10805AFF300803B
:109C9400DFF8A46831698D42C0F07A82686800F008
:109CA4000302012A00F07482C2084FEAC209C20703
:109CB40005EB090839D42C6810F0030F00F06A8210
:109CC400604205448D42A144C0F0628270698542BD
:109CD40000F0DA80E408202C72D2D5F80CA0AF682A
:109CE400554508BF00F0FCFEBD4208BF00F0F8FE79
:109CF4006868C008C000B0EBC40F18BF00F0F0FEE5
:109D040006F1280000EBC400874205D031698F4278
:109D140053D3FA68AA4250D1BA4540D130680121E0
:109D240001FA04F420EA04043460454580F03082EA
:109D3400D8F80440E00740F12B82A10700F17C81B0
:109D4400B069804540F0B380F168B5618944C6F8D4
:109D54000C9049F00100686071698D4202D10020C5
:109D64007061B060F169494580F01482DFF82C24F9
:109D7400106808B9FEF781FDB169002900F00A8274
:109D8400F068292824BF3046FEF76AFDF069F168BF
:109D9400884280F0FF814FF0FF30F061FAE18245A4
:109DA40006D03069824508D3DAF80810A94204D1F4
:109DB400C7F80CA0CAF80870B7E700F091FEB4E742
:109DC400EC68AF69AC420BD0A868884222D3C16862
:109DD400A94204BFA268AA421CD1C460A0601BE0CF
:109DE40005F11402146834B905F1100214689CB129
:109DF40001E01A46146804F114031868002802BF2D
:109E040004F1100318680028F3D18A4202D3002118
:109E1400116001E000F064FE002F86D0E96906F5C8
:109E2400987000EB81000268954209D1046020001B
:109E340011D1E8697168012282409143716074E72D
:109E44003069874205D33969A94214BF7C613C61FA
:109E540001E000F045FE002C3FF467AF31698C420D
:109E6400ABD3A761286928B1884226BF20618461E9
:109E740000F036FE686900283FF457AF3169884224
:109E84009BD36061846150E798F8040000F00300FC
:109E940003287FF44AAFC6F8089049F00101D8F8C6
:109EA400040040084000C8F8040069600AE07069D2
:109EB40080450AD1B16875618944C6F8089049F0B3
:109EC4000100686045F8099064E1E408E400A144F5
:109ED400E408202C3AD2D8F80CA0D8F80870D04561
:109EE40008BF00F0FDFDB84508BF00F0F9FDD8F843
:109EF4000400C008C000B0EBC40F18BF00F0F0FDB0
:109F040006F1280000EBC400874207D031698F4274
:109F1400C0F08580FA68424540F08180BA4507D197
:109F24003068012101FA04F420EA0404346078E082
:109F3400824506D03069824571D3DAF8081041456C
:109F44006DD1C7F80CA0CAF808706AE0D8F80C40C4
:109F5400D8F8187044450DD0D8F808003169884203
:109F640023D3C268424504BFA16841451DD1C460E2
:109F7400A0601CE008F114010C6834B908F1100168
:109F84000C68A4B101E011460C6804F114021068D5
:109F9400002802BF04F1100210680028F3D13069D0
:109FA400814202D300220A6001E000F099FD002FF3
:109FB40037D0D8F81C1006F5987000EB81000268C1
:109FC40090450AD10460200012D1D8F81C007168B1
:109FD400012282409143716023E03069874205D3B6
:109FE4003969414514BF7C613C6101E000F078FDB2
:109FF400BCB131698C4212D3A761D8F8100028B1E2
:10A00400884226BF2061846100F06AFDD8F81400FC
:10A0140038B13169884202D36061846101E000F0A3
:10A024005FFD49F00100686045F8099071698D424F
:10A034000BD1C6F80890ADE064086400C8F8044089
:10A0440049F00100686045F809904FEAD907202FCC
:10A0540022D206F1280000EBC704A046B9F1100F84
:10A0640038BF00F03DFD306820FA07F1CA0705D477
:10A07400012101FA07F70743376006E0A068316958
:10A0840088422CBF804600F02BFDA560C8F80C5018
:10A09400C5F80880EC607DE05FEA192008BF002164
:10A0A40023D0B0F5803F28BF1F211ED2A0F58072B7
:10A0B400120C02F008029040A0F58051090C01F046
:10A0C40004018840A0F580431B0CC2F10E0203F08A
:10A0D4000203521AD21A984002EBD032D01D29FA48
:10A0E40000F101F0010101EB420106F59872002331
:10A0F40002EB8100E9616B612B61726822FA01F362
:10A10400DC0707D4012303FA01F1114371600560F0
:10A11400A8611DE002681F291DBF4908C1F119018A
:10A1240009FA01F1494600E002465068C008C0003F
:10A13400484510D002F11003C80F03EB8003490017
:10A1440018680028F0D13069834211D31D60AA61D8
:10A15400ED60AD600EE0316990688A4228BF8842A4
:10A1640006D3C5609560A860EA600020A86101E09C
:10A1740000F0B6FC306A401E30620BD1D6F8C8013C
:10A1840000E080680028FCD14FF0FF30306201E02D
:10A1940000F0A6FCAFF30080BDE8F087D81A0020D9
:10A1A4002DE9F84F0F4606467B6831690024D8082C
:10A1B400C0008F428146C0F07A8103F00305012D6F
:10A1C40000F0758107EB090A574580F07081DAF8D1
:10A1D40004B05FEACB7540F16A8113F0030F1546B2
:10A1E4000FD1E908202924BF2A1D9042C0F06181C3
:10A1F400DFF848138A685200451BAA42C0F059810F
:10A2040053E1A9451CD3A9EB0504102CC0F04D81E2
:10A2140003F001032B4343F0020379197B6044F0FC
:10A224000302486840F0010048604A600819224669
:10A23400436843F0010343603046FEF755FB34E1C5
:10A24400B269924516D1F0684844854280F0318164
:10A2540003F00103441B2B4343F0020378197B6092
:10A2640044F00102416841F0010141604260B06183
:10A27400F4601AE1706982452FD1B0688144A94520
:10A28400C0F01781A9EB0501102903F0010312D3D3
:10A2940078191D4345F002057D604218436843F078
:10A2A4000103436041F001044460415053685B087A
:10A2B4005B0053600EE049EA030343F00203381DD8
:10A2C4007B603A1D50F8091041F0010142F8091071
:10A2D400002000217061B160E7E05FEA8B7000F15B
:10A2E400E8804FEADB00C2009144A945C0F0E18058
:10A2F4004FEAD20BA9EB0500BBF1200F00903BD233
:10A30400DAF80C40DAF80880A24508BF00F0E8FB50
:10A31400C24508BF00F0E4FBDAF80400C008C0003E
:10A32400B0EBCB0F18BF00F0DBFB06EBCB0000F16A
:10A334002801884508D032699045C0F08980D8F852
:10A344000C10514540F08480444506D13068012208
:10A3540002FA0BF1884330607CE000F128018C4262
:10A3640005D03069844273D3A168514570D1C8F8CF
:10A374000C40C4F808806DE0DAF80C40DAF8188074
:10A3840054450CD0DAF80800884222D3C1685145FC
:10A3940004BFA26852451CD1C460A0601BE00AF14E
:10A3A4001402146834B90AF1100214689CB101E073
:10A3B4001A46146804F114031868002802BF04F153
:10A3C400100318680028F3D18A4202D300211160D7
:10A3D40001E000F085FBB8F1000F3BD0DAF81C0077
:10A3E40006EB800101F59870026892450AD1046079
:10A3F400200015D1DAF81C007168012282409143D3
:10A40400716027E03069804508D3D8F810105145B1
:10A4140014BFC8F81440C8F8104001E000F060FB15
:10A42400C4B131698C4213D3C4F81880DAF810002F
:10A4340028B1884226BF2061846100F051FBDAF81C
:10A44400140038B13169884202D36061846101E04B
:10A4540000F046FB00981028387900F001000DD276
:10A4640049EA000040F0020078603A1D381D50F8B7
:10A47400091041F0010142F8091016E0284340F0A8
:10A48400020078607919486840F00100486000983B
:10A4940040F00300486000980844426842F001021A
:10A4A40042603046009AFEF71FFA3C4601E000F095
:10A4B40017FB2046BDE8F28F70B505460E46002412
:10A4C40025B93046FEF764FC044632E016F1400F2D
:10A4D4002FD20B2E31BF102406F10B04E408E40044
:10A4E400AFF3008001232246A5F10801DFF85000F4
:10A4F400FFF756FE0446AFF300800CB1083418E0B1
:10A504003046FEF745FC040013D055F8042C12F035
:10A51400030F0CBF08200420D208D200121AB24242
:10A5240088BF32462946204600F00CF82846FFF73B
:10A53400A6FB204670BD000088170020D81A002012
:10A544008817002062B38B0708D0521E11F8013B14
:10A5540000F8013B00F024808B07F6D1830740F01C
:10A56400208000BF103A07D330B4B1E83810103A55
:10A57400A0E83810F9D230BC530724BFB1E8081062
:10A58400A0E8081044BF51F8043B40F8043BD2074C
:10A5940024BF31F8022B20F8022B44BF0B78037040
:10A5A4007047121F17D35B0009D151F8043B20F800
:10A5B400023B1B0C121F20F8023BF6D20BE051F8B1
:10A5C400043B00F8013B1B0A20F8023B1B0C121F42
:10A5D40000F8013BF3D238BF121D521E24BF11F8FC
:10A5E400013B00F8013BF8D87047FFF748BBFFF781
:10A5F40063BF00002DE9F14F0C0015001E000A9FF7
:10A604005FF00008DFF8C0917049B1F90000401C08
:10A61400424612B2904244DB404600B2082840DA77
:10A624002800002838D099F80000002834D140468A
:10A6340000B2B1F90020521C904202D10888401C9B
:10A64400088000F0A9FA8246B3464FF6FF708345AE
:10A6540000D383465E4801688A450AD20168B1EB9B
:10A664000A018B4505D21BEB0A010160584600F034
:10A6740090FAC9F808500098C9F80400C9F80C40C9
:10A684001AEB0600C9F81000C9F81470012089F803
:10A694000000404600B206E018F1010819F118095B
:10A6A400B2E75FF0FF30BDE8F28F0100080000B2AE
:10A6B40010F1010F0FD045480A00B0F9003012B272
:10A6C4009A4202D10288521E028000203E4A182378
:10A6D40011FB03F3D0545FF0FF3070472DE9F84FBE
:10A6E4004FF6FF7400F058FA050039490E68AE19A8
:10A6F4005FF0000ADFF8D090CB46344FB7F9000082
:10A70400524612B2904236DB9BF80000C0072DD5AA
:10A71400DBF8100086421DD3DBF81400002803D1B7
:10A7240002208BF8000021E0DBF81400DBF8142091
:10A73400521BB5FBF0F300FB0320CBF81000032001
:10A744008BF80000DBF81000A0420FD2DBF81000F9
